{
  "_format": "hh-sol-artifact-1",
  "contractName": "NumberNft",
  "sourceName": "contracts/NumberNft.sol",
  "abi": [
    {
      "inputs": [
        {
          "internalType": "string",
          "name": "reason",
          "type": "string"
        }
      ],
      "name": "AlwaysFail",
      "type": "error"
    },
    {
      "inputs": [],
      "name": "NotEnoughFeePayed",
      "type": "error"
    },
    {
      "anonymous": false,
      "inputs": [
        {
          "indexed": true,
          "internalType": "uint256",
          "name": "powerNumber",
          "type": "uint256"
        },
        {
          "indexed": false,
          "internalType": "string",
          "name": "powerPhrase",
          "type": "string"
        }
      ],
      "name": "PowerSet",
      "type": "event"
    },
    {
      "anonymous": false,
      "inputs": [
        {
          "indexed": true,
          "internalType": "uint256",
          "name": "id",
          "type": "uint256"
        },
        {
          "components": [
            {
              "internalType": "uint256",
              "name": "id",
              "type": "uint256"
            },
            {
              "internalType": "uint256",
              "name": "number",
              "type": "uint256"
            }
          ],
          "indexed": false,
          "internalType": "struct NumberNft.Token",
          "name": "token",
          "type": "tuple"
        }
      ],
      "name": "TokenMinted",
      "type": "event"
    },
    {
      "inputs": [],
      "name": "alwaysFailRequire",
      "outputs": [],
      "stateMutability": "nonpayable",
      "type": "function"
    },
    {
      "inputs": [],
      "name": "alwaysFailRevert",
      "outputs": [],
      "stateMutability": "nonpayable",
      "type": "function"
    },
    {
      "inputs": [],
      "name": "getPower",
      "outputs": [
        {
          "internalType": "uint256",
          "name": "powerNumber",
          "type": "uint256"
        },
        {
          "internalType": "string",
          "name": "powerPhrase",
          "type": "string"
        }
      ],
      "stateMutability": "view",
      "type": "function"
    },
    {
      "inputs": [],
      "name": "getPowerAnonymous",
      "outputs": [
        {
          "internalType": "uint256",
          "name": "",
          "type": "uint256"
        },
        {
          "internalType": "string",
          "name": "",
          "type": "string"
        }
      ],
      "stateMutability": "view",
      "type": "function"
    },
    {
      "inputs": [
        {
          "internalType": "uint256",
          "name": "id",
          "type": "uint256"
        }
      ],
      "name": "getToken",
      "outputs": [
        {
          "components": [
            {
              "internalType": "uint256",
              "name": "id",
              "type": "uint256"
            },
            {
              "internalType": "uint256",
              "name": "number",
              "type": "uint256"
            }
          ],
          "internalType": "struct NumberNft.Token",
          "name": "",
          "type": "tuple"
        }
      ],
      "stateMutability": "view",
      "type": "function"
    },
    {
      "inputs": [],
      "name": "incPowerNumber",
      "outputs": [],
      "stateMutability": "nonpayable",
      "type": "function"
    },
    {
      "inputs": [
        {
          "internalType": "uint256",
          "name": "number",
          "type": "uint256"
        }
      ],
      "name": "mint",
      "outputs": [],
      "stateMutability": "payable",
      "type": "function"
    },
    {
      "inputs": [
        {
          "internalType": "uint256",
          "name": "number",
          "type": "uint256"
        },
        {
          "internalType": "string",
          "name": "phrase",
          "type": "string"
        }
      ],
      "name": "setPower",
      "outputs": [],
      "stateMutability": "nonpayable",
      "type": "function"
    }
  ],
  "bytecode": "0x608060405260008055602a60035560405180608001604052806045815260200162000dfb60459139600490805190602001906200003e92919062000053565b503480156200004c57600080fd5b5062000168565b828054620000619062000132565b90600052602060002090601f016020900481019282620000855760008555620000d1565b82601f10620000a057805160ff1916838001178555620000d1565b82800160010185558215620000d1579182015b82811115620000d0578251825591602001919060010190620000b3565b5b509050620000e09190620000e4565b5090565b5b80821115620000ff576000816000905550600101620000e5565b5090565b7f4e487b7100000000000000000000000000000000000000000000000000000000600052602260045260246000fd5b600060028204905060018216806200014b57607f821691505b6020821081141562000162576200016162000103565b5b50919050565b610c8380620001786000396000f3fe60806040526004361061007b5760003560e01c8063a0712d681161004e578063a0712d6814610118578063afa9e7e314610134578063d458b1281461014b578063e4b50cb8146101625761007b565b80633f9e1cf51461008057806349a4e50d146100ac5780638579cdb4146100d857806390cc71bf146100ef575b600080fd5b34801561008c57600080fd5b5061009561019f565b6040516100a3929190610722565b60405180910390f35b3480156100b857600080fd5b506100c161023c565b6040516100cf929190610722565b60405180910390f35b3480156100e457600080fd5b506100ed6102d9565b005b3480156100fb57600080fd5b50610116600480360381019061011191906108c7565b610325565b005b610132600480360381019061012d9190610923565b610382565b005b34801561014057600080fd5b506101496104c6565b005b34801561015757600080fd5b50610160610518565b005b34801561016e57600080fd5b5061018960048036038101906101849190610923565b610563565b604051610196919061098e565b60405180910390f35b6000606060035460048080546101b4906109d8565b80601f01602080910402602001604051908101604052809291908181526020018280546101e0906109d8565b801561022d5780601f106102025761010080835404028352916020019161022d565b820191906000526020600020905b81548152906001019060200180831161021057829003601f168201915b50505050509050915091509091565b600060606003546004808054610251906109d8565b80601f016020809104026020016040519081016040528092919081815260200182805461027d906109d8565b80156102ca5780601f1061029f576101008083540402835291602001916102ca565b820191906000526020600020905b8154815290600101906020018083116102ad57829003601f168201915b50505050509050915091509091565b60011561031b576040517fd5fb20ab00000000000000000000000000000000000000000000000000000000815260040161031290610a56565b60405180910390fd5b6001600381905550565b8160038190555080600490805190602001906103429291906105b3565b506003547f113f06034a2a3584673d8fddae851762b8bbf9e1cc51acb9e95f6cc1db5ee05960046040516103769190610b0b565b60405180910390a25050565b662386f26fc100003410156103c3576040517f59cf958f00000000000000000000000000000000000000000000000000000000815260040160405180910390fd5b60006040518060400160405280600054815260200183815250905060028190806001815401808255809150506001900390600052602060002090600202016000909190919091506000820151816000015560208201518160010155505033600160008054815260200190815260200160002060006101000a81548173ffffffffffffffffffffffffffffffffffffffff021916908373ffffffffffffffffffffffffffffffffffffffff1602179055506000547f504606e453e268974182d6796f82aed292fa52a6227255995193d97d383a7eac826040516104a5919061098e565b60405180910390a260016000546104bc9190610b5c565b6000819055505050565b60016003546104d59190610b5c565b6003819055506003547f113f06034a2a3584673d8fddae851762b8bbf9e1cc51acb9e95f6cc1db5ee059600460405161050e9190610b0b565b60405180910390a2565b6000610559576040517f08c379a000000000000000000000000000000000000000000000000000000000815260040161055090610bfe565b60405180910390fd5b6001600381905550565b61056b610639565b6002828154811061057f5761057e610c1e565b5b9060005260206000209060020201604051806040016040529081600082015481526020016001820154815250509050919050565b8280546105bf906109d8565b90600052602060002090601f0160209004810192826105e15760008555610628565b82601f106105fa57805160ff1916838001178555610628565b82800160010185558215610628579182015b8281111561062757825182559160200191906001019061060c565b5b5090506106359190610653565b5090565b604051806040016040528060008152602001600081525090565b5b8082111561066c576000816000905550600101610654565b5090565b6000819050919050565b61068381610670565b82525050565b600081519050919050565b600082825260208201905092915050565b60005b838110156106c35780820151818401526020810190506106a8565b838111156106d2576000848401525b50505050565b6000601f19601f8301169050919050565b60006106f482610689565b6106fe8185610694565b935061070e8185602086016106a5565b610717816106d8565b840191505092915050565b6000604082019050610737600083018561067a565b818103602083015261074981846106e9565b90509392505050565b6000604051905090565b600080fd5b600080fd5b61076f81610670565b811461077a57600080fd5b50565b60008135905061078c81610766565b92915050565b600080fd5b600080fd5b7f4e487b7100000000000000000000000000000000000000000000000000000000600052604160045260246000fd5b6107d4826106d8565b810181811067ffffffffffffffff821117156107f3576107f261079c565b5b80604052505050565b6000610806610752565b905061081282826107cb565b919050565b600067ffffffffffffffff8211156108325761083161079c565b5b61083b826106d8565b9050602081019050919050565b82818337600083830152505050565b600061086a61086584610817565b6107fc565b90508281526020810184848401111561088657610885610797565b5b610891848285610848565b509392505050565b600082601f8301126108ae576108ad610792565b5b81356108be848260208601610857565b91505092915050565b600080604083850312156108de576108dd61075c565b5b60006108ec8582860161077d565b925050602083013567ffffffffffffffff81111561090d5761090c610761565b5b61091985828601610899565b9150509250929050565b6000602082840312156109395761093861075c565b5b60006109478482850161077d565b91505092915050565b61095981610670565b82525050565b6040820160008201516109756000850182610950565b5060208201516109886020850182610950565b50505050565b60006040820190506109a3600083018461095f565b92915050565b7f4e487b7100000000000000000000000000000000000000000000000000000000600052602260045260246000fd5b600060028204905060018216806109f057607f821691505b60208210811415610a0457610a036109a9565b5b50919050565b7f416c77617973206661696c207265766572740000000000000000000000000000600082015250565b6000610a40601283610694565b9150610a4b82610a0a565b602082019050919050565b60006020820190508181036000830152610a6f81610a33565b9050919050565b60008190508160005260206000209050919050565b60008154610a98816109d8565b610aa28186610694565b94506001821660008114610abd5760018114610acf57610b02565b60ff1983168652602086019350610b02565b610ad885610a76565b60005b83811015610afa57815481890152600182019150602081019050610adb565b808801955050505b50505092915050565b60006020820190508181036000830152610b258184610a8b565b905092915050565b7f4e487b7100000000000000000000000000000000000000000000000000000000600052601160045260246000fd5b6000610b6782610670565b9150610b7283610670565b9250827fffffffffffffffffffffffffffffffffffffffffffffffffffffffffffffffff03821115610ba757610ba6610b2d565b5b828201905092915050565b7f416c77617973206661696c207265717569726500000000000000000000000000600082015250565b6000610be8601383610694565b9150610bf382610bb2565b602082019050919050565b60006020820190508181036000830152610c1781610bdb565b9050919050565b7f4e487b7100000000000000000000000000000000000000000000000000000000600052603260045260246000fdfea2646970667358221220ae1d85fa6bdb097c9c9878ed057cb530c96ca36baf8bfbcc5e1eabe4affc481064736f6c63430008090033416e7377657220746f2074686520556c74696d617465205175657374696f6e206f66204c6966652c2054686520556e6976657273652c20616e642045766572797468696e67",
  "linkReferences": {},
  "deployedLinkReferences": {}
}